:100000000C9434000C9451000C9451000C94510049
:100010000C9451000C9451000C9451000C9451001C
:100020000C9451000C9451000C9451000C9451000C
:100030000C9451000C9451000C9404020C94510047
:100040000C9451000C9451000C9429020C94510012
:100050000C9451000C9451000C9451000C945100DC
:100060000C9451000C94510011241FBECFEFD8E026
:10007000DEBFCDBF11E0A0E0B1E0ECE8F6E002C0E9
:1000800005900D92A831B107D9F711E0A8E1B1E0D0
:1000900001C01D92AF35B107E1F70E9453000C94E7
:1000A00044030C9400004F925F927F928F929F9234
:1000B000AF92BF92CF92DF92EF92FF920F931F9376
:1000C000DF93CF93CDB7DEB7C055D0400FB6F894CD
:1000D000DEBF0FBECDBF60E875E280E090E00E9419
:1000E00055020E94FA0100E010E090E1A92EB12C27
:1000F000AC0EBD1E86E0882E912C8C0E9D1E2E010E
:100100000894411C511C80E091E00E9480020E94F2
:1001100075028823E1F36CE271E080E090E00E94D8
:10012000CC01C5010E94B802C5010E94800287E08F
:1001300091E00E948002CC24DD242AC0E13619F02F
:10014000E23621F514C0222369F0223059F0213023
:1001500049F02330F1F4F401EC0DFD1D7082089498
:10016000C11CD11C702E0F5F1F4F21E012C0213027
:1001700021F40F5F1F4F22E00CC0C801019622300E
:1001800019F48C0123E005C08C0102C00F5F1F4FE2
:1001900020E0F501E00FF11FE081EE2379F6F40194
:1001A000EC0DFD1D10828AE091E00E948002740136
:1001B00000E010E01AC0F7018081992787FD909533
:1001C000B2014AE050E00E94FF02C2010E94800298
:1001D0000F5F1F4FF7018181882321F084E191E0B7
:1001E0000E948002F70111927F010C151D051CF37E
:1001F00087E091E00E948002C50167E171E00E9402
:10020000F80281CF8130F9F0813020F0823009F09E
:100210004BC032C0413059F425B181E090E002C0BA
:10022000880F991F6A95E2F7282B25B9089525B103
:1002300081E090E002C0880F991F6A95E2F78095EF
:10024000822385B90895413059F428B181E090E0C6
:1002500002C0880F991F6A95E2F7282B28B90895E4
:1002600028B181E090E002C0880F991F6A95E2F7FB
:100270008095822388B90895413059F42BB181E0EB
:1002800090E002C0880F991F6A95E2F7282B2BB9DE
:1002900008952BB181E090E002C0880F991F6A9504
:1002A000E2F7809582238BB908958130F9F081308F
:1002B00020F0823009F04BC032C0413059F424B1F3
:1002C00081E090E002C0880F991F6A95E2F7282B21
:1002D00024B9089524B181E090E002C0880F991FED
:1002E0006A95E2F78095822384B90895413059F4E4
:1002F00027B181E090E002C0880F991F6A95E2F76C
:10030000282B27B9089527B181E090E002C0880F1B
:10031000991F6A95E2F78095822387B90895413045
:1003200059F42AB181E090E002C0880F991F6A95C4
:10033000E2F7282B2AB908952AB181E090E002C0A3
:10034000880F991F6A95E2F7809582238AB90895EC
:10035000CF92DF92EF92FF920F931F93182F062FE9
:10036000C42E41E00E940201C694DD24EE24FF2445
:10037000C701B6010E94CC01812F602F40E00E948E
:100380000201C701B6010E94CC011F910F91FF909D
:10039000EF90DF90CF900895EF92FF920F931F930D
:1003A0007B018C01209118013091190140911A01B3
:1003B00050911B018091180190911901A0911A018F
:1003C000B0911B01821B930BA40BB50B8E159F05DF
:1003D000A007B10778F320911801309119014091DD
:1003E0001A0150911B01B901CA011F910F91FF9091
:1003F000EF90089582E084BD93E095BD99EF97BD9D
:1004000080936E00789408951F920F920FB60F920A
:1004100011248F939F93AF93BF9380911801909174
:100420001901A0911A01B0911B010196A11DB11DE6
:100430008093180190931901A0931A01B0931B01A6
:10044000BF91AF919F918F910F900FBE0F901F9012
:1004500018951F920F920FB60F9211248F939F93AE
:10046000EF93FF9380911E019091C600E82FF0E07A
:10047000E15EFE4F90838F5F80931E0180911E018D
:100480008F7380931E0180911C01803428F4809129
:100490001C018F5F80931C01FF91EF919F918F91C1
:1004A0000F900FBE0F901F9018959B01AC0180E23A
:1004B0008093C00088E98093C10086E08093C200E9
:1004C00084E0220F331F441F551F8A95D1F760E047
:1004D00074E284EF90E00E94D602215030403093C5
:1004E000C5002093C4007894089580911C0108955C
:1004F000982F8091C00085FFFCCF9093C60008958F
:10050000FC0107C08091C00085FFFCCF9093C6001E
:10051000319690819923B1F708959C01F9012F5FDD
:100520003F4F9491992339F08091C00085FFFCCF13
:100530009093C600F3CF089580911C01882311F495
:10054000EFEF14C080911D01E82FF0E0E15EFE4F57
:10055000E0818F5F80931D0180911D018F738093D7
:100560001D0180911C01815080931C018E2F0895E4
:10057000EF92FF921F93CF93DF937C0110E006C0B0
:100580000E949C02CE0DDF1D88831F5F80911C019D
:10059000C12FD0E08823A1F7CE0DDF1D1882812F57
:1005A000DF91CF911F91FF90EF900895A1E21A2E55
:1005B000AA1BBB1BFD010DC0AA1FBB1FEE1FFF1F07
:1005C000A217B307E407F50720F0A21BB30BE40B57
:1005D000F50B661F771F881F991F1A9469F760959E
:1005E0007095809590959B01AC01BD01CF01089558
:1005F000FB01DC0101900D920020E1F70895FB0161
:100600009F01E8944230C4F04532B4F44A3029F4F2
:1006100097FB1EF4909581959F4F642F77270E943A
:100620003003805D8A330CF0895D8193CB010097A4
:10063000A1F716F45DE251931082C9010C942003D6
:10064000DC01FC01672F71917723E1F7329704C039
:100650007C916D9370836291AE17BF07C8F30895C4
:10066000AA1BBB1B51E107C0AA1FBB1FA617B707D8
:1006700010F0A61BB70B881F991F5A95A9F78095F4
:0C0680009095BC01CD010895F894FFCFC7
:10068C00556C617A3A20000D0A00496E64656B73F3
:08069C00693A20002C20000047
:00000001FF
